:200000000C941C010C9444010C9444010C9444010C9444010C94B7070C9444010C94440167
:200020000C9444010C9444010C9444010C9444010C9444010C9444010C9444010C94440198
:200040000C9415070C9444010C9485070C945F070C9444010C9444010C9444010C94440139
:200060000C9444010C94440152657475726E696E6720746F2050726576696F7573204D6F9C
:200080006465204661696C7572652E2E2E0053657474696E6720426175647261746520538C
:2000A00075636365737366756C2100456E746572696E6720436F6E66696775726174696F0C
:2000C0006E204D6F6465205375636365737366756C2100456E746572696E6720436F6E66CA
:2000E000696775726174696F6E204D6F6465204661696C7572652E2E2E0043414E20696E4E
:200100006974204641494C004B4559413A2044495341424C452073656E74004D435032352D
:200120003135204F4B20283235306B6270732C20384D487A2900206572723D307800206383
:200140007572725261773D002073706565645261773D0020616E676C655261773D0048422F
:20016000202049443D3078005741524E3A206E6F2068656172746265617420726563656E61
:20018000746C7900202D3E206465673D002072656C61793D002073746565723D0020617201
:2001A0006D3D005243207468723D0044495341524D202D3E2073656E742044495341424C61
:2001C000450041524D4544202D3E2073656E74204142535F504F535F4D4F4445202B204591
:2001E0004E41424C450000000000240027002A0000000000250028002B0004040404040498
:2002000004040202020202020303030303030102040810204080010204081020010204086B
:2002200010200000000800020100000304070000000000000000A60811241FBECFEFD8E03F
:20024000DEBFCDBF11E0A0E0B1E0E2EFF3E202C005900D92AC34B107D9F722E0ACE4B1E04C
:2002600001C01D92AB32B207E1F711E0CCE1D1E004C02197FE010E94820FCB31D107C9F70F
:200280000E94E6080C94F7110C9400008CBD9DBD089590E0FC01EE5DFD4F2491FC01E25F4F
:2002A000FD4F3491FC01E650FE4FE491EE23C9F0222339F0233001F1A8F4213019F1223072
:2002C00029F1F0E0EE0FFF1FE051FE4FA591B4918FB7F894EC91611126C030953E233C9384
:2002E0008FBF08952730A9F02830C9F0243049F7809180008F7D03C0809180008F77809374
:200300008000DFCF84B58F7784BDDBCF84B58F7DFBCF8091B0008F778093B000D2CF80913A
:20032000B0008F7DF9CF3E2BDACFCF93DF9390E0FC01E25FFD4F249186509E4FFC018491CF
:200340008823C9F090E0880F991FFC01EA51FE4FA591B491FC01E051FE4FC591D4916111D2
:200360000DC09FB7F8948C91209582238C938881282328839FBFDF91CF910895623051F497
:200380009FB7F8943C91822F809583238C93E8812E2BEFCF8FB7F894EC912E2B2C938FBFEE
:2003A000EACF3FB7F8948091710190917201A0917301B091740126B5A89B05C02F3F19F036
:2003C0000196A11DB11D3FBFBA2FA92F982F8827BC01CD01620F711D811D911D42E0660F58
:2003E000771F881F991F4A95D1F708958F929F92AF92BF92CF92DF92EF92FF924B015C0153
:200400000E94D1016B017C010E94D1016C197D098E099F09683E734081059105A8F321E0B0
:20042000821A9108A108B10888EEC80E83E0D81EE11CF11C81149104A104B10429F7FF9043
:20044000EF90DF90CF90BF90AF909F908F900895AF92BF92CF92DF92EF92FF920F931F930C
:20046000CF93DF936C017B018B01040F151FEB015E01AE18BF08C017D10759F06991D6014B
:20048000ED91FC910190F081E02DC6010995892B79F7C501DF91CF911F910F91FF90EF90C5
:2004A000DF90CF90BF90AF900895FC01538D448D252F30E0842F90E0821B930B541710F068
:2004C000CF96089501970895FC01918D828D981761F0A28DAE0FBF2FB11D5D968C91928DE4
:2004E0009F5F9F73928F90E008958FEF9FEF0895FC01918D828D981731F0828DE80FF11D07
:20050000858D90E008958FEF9FEF0895FC01918D228D892F90E0805C9F4F821B91098F731E
:200520009927089589E791E00E94860221E0892B09F420E0822F089580E090E0892B29F0B6
:200540000E94920281110C9400000895FC01A48DA80FB92FB11DA35ABF4F2C91848D90E0B2
:2005600001968F739927848FA689B7892C93A089B1898C91837080648C93938D848D98138F
:2005800006C00288F389E02D80818F7D80830895EF92FF920F931F93CF93DF93EC0181E04D
:2005A000888F9B8D8C8D98131AC0E889F989808185FF15C09FB7F894EE89FF896083E889DC
:2005C000F98980818370806480839FBF81E090E0DF91CF911F910F91FF90EF900895F62EA0
:2005E0000B8D10E00F5F1F4F0F731127E02E8C8D8E110CC00FB607FCFACFE889F9898081C6
:2006000085FFF5CFCE010E94A602F1CFEB8DEC0FFD2FF11DE35AFF4FF0829FB7F8940B8F93
:20062000EA89FB8980818062CFCF0F931F93CF93DF938C01D0E0C0E0F801EC0FFD1F649138
:20064000662341F089E791E00E94C802892B11F02196F2CFCE01DF91CF911F910F910895DA
:20066000CF93DF93EC01888D8823B9F0AA89BB89E889F9898C9185FD03C0808186FD0DC033
:200680000FB607FCF7CF8C9185FFF2CF808185FFEDCFCE010E94A602E9CFDF91CF910895EB
:2006A00008958EBD00000DB407FEFDCF8EB508951F93CF93DF93182F80E591E00E94460154
:2006C000C7E1D2E060E08A890E94490183E00E945103812F0E94510380E00E945103182FE5
:2006E00061E08A890E944901812FDF91CF911F910895FF920F931F93CF93DF93F82E062FD9
:20070000142F80E591E00E944601C7E1D2E060E08A890E94490185E00E9451038F2D0E9485
:200720005103802F0E945103812F0E94510361E08A89DF91CF911F910F91FF900C9449012D
:20074000CF93DF93D82F2FB7F8948091750190917601A0917701B09178012FBFC82F4D2F69
:2007600060EE8FE00E9479038EE00E945803807ED81791F02FB7F894809175019091760134
:20078000A0917701B09178012FBF8C1B893C38F381E0DF91CF91089580E0FBCFCF93DF93A5
:2007A000C82F8EE00E945803807E8032F9F4C032E9F08BE20E945803D82FD07486FD05C072
:2007C00040E460E48BE20E94790340E460E48CE20E94790380E60E94A003811111C0D11142
:2007E00005C040E060E48BE20E94790340E060E48CE20E9479038C2FDF91CF910C94A00387
:2008000081E0DF91CF910895FF920F931F93CF93DF93C82FF62E172F042F80E591E00E9445
:20082000460160E0809129020E94490182E00E9451038C2F0E945103CF2DD12F0C0F1D2F9D
:20084000111DC017D10721F089910E945103F9CF61E080912902DF91CF911F910F91FF90A6
:200860000C944901CF93DF9300D000D0CDB7DEB71C821B82613081F498E09A83198244E06C
:20088000BE016F5F7F4F0E9404040F900F900F900F90DF91CF9108951A82F0CF0F931F93BB
:2008A000CF93DF93082F162F80E591E00E944601C7E1D2E060E08A890E94490182E00E948C
:2008C0005103802F0E945103812F0E94510361E08A89DF91CF911F910F910C9449012F925A
:2008E0003F924F925F926F927F928F929F92AF92CF92DF92EF92FF920F931F93CF93DF93A4
:2009000000D000D0CDB7DEB741E050E060E076E0409318025093190260931A0270931B021D
:200920001092250221E02093170228E020931C02EDE1F2E09C01285F3F4FDC014D91CD016D
:200940004193A217B307C9F70E94D1012B013C018090100190901101A09012011E01B4E06A
:200960002B0E311C89829A82AB82FE0131966F01FE2E0D2DD6011D916D01812F0E94580361
:2009800083FD14C01F5FE12C0E94D101DC01CB0184199509A609B709E2E0EE120EC0843C61
:2009A0009940A105B105F0F206E07DC0C214D30409F710E072E0E72EE7CF843C9940A10504
:2009C000B10590F740911C026DE172E085E0810F0E94040480912502813029F480911C0277
:2009E000806480931C0260911C0284E0810F0E944E04409118025091190260911A027091F6
:200A00001B02809117028130D9F54C835B83AB0166277727842F83708860942F990F990FEB
:200A2000990F907E892B8A8365E0569547956A95E1F7498344E06F2D702F812F0E940404D7
:200A4000115048E068E0812F0E9479030E94D1016B017C01812F0E945803082F08700E949C
:200A6000D101DC01CB018C199D09AE09BF090023A9F0843C9940A105B10560F307E013C073
:200A8000CA0123E0969587952A95E1F789834295440F407E4A831C821B82CCCF843C99407A
:200AA000A105B10558F781E0011180E00F900F900F900F90DF91CF911F910F91FF90EF900E
:200AC000DF90CF90AF909F908F907F906F905F904F903F902F900895FF920F931F93CF936D
:200AE000DF93C82FF62E172F042F80E591E00E94460160E0809129020E94490183E00E94C4
:200B000051038C2F0E945103CF2DD12F0C0F1D2F111DC017D10729F080E00E945103899305
:200B2000F8CF61E080912902DF91CF911F910F91FF900C9449010F931F93CF93DF9300D0E0
:200B400000D0CDB7DEB7182F10921702109218021092190210921A0210921B0244E0BE01D1
:200B60006F5F7F4F0E946C052A81898138E0839FC0011124422F50E065E0559547956A9536
:200B8000E1F7840F951F092E000CAA0BBB0B8093180290931902A0931A02B0931B0223FF3C
:200BA00029C032E0880F991FAA1FBB1F3A95D1F72370820F911DA11DB11DBA2FA92F982FCB
:200BC00088272B81820F911DA11DB11DBA2FA92F982F88272C81820F911DA11DB11D80932D
:200BE000180290931902A0931A02B0931B0281E0809317028FEF810F0E945803082F84E0BB
:200C0000810F0E94580303FF16C091E090932502482F4F7040931C026DE172E085E0810FF8
:200C20000E946C050F900F900F900F90DF91CF911F910F91089510922502EACF1F93CF93D2
:200C4000DF9380E591E00E944601C7E1D2E060E08A890E94490180EA0E94510380E00E9468
:200C60005103182F61E08A890E944901812FDF91CF911F91089560E0882319F0813041F4F2
:200C800061E087E00E94490160E08EE00C94490160E087E00E94490161E0F7CFE0E8F0E0F6
:200CA00080818F77808380818F7B808361E089E00C944901E0E8F0E080818F7780838081E5
:200CC0008F7B808360E089E00C944901CF93DF93CDB7DEB728970FB6F894DEBF0FBECDBF81
:200CE00088E0E3E1F1E0DE01119601900D928A95E1F7CE0101960E946F0428960FB6F894C0
:200D0000DEBF0FBECDBFDF91CF910895FC0101900020E9F73197AF01481B590BBC0189E776
:200D200091E00C9428028F929F92AF92BF920F931F93CF93DF93CDB7DEB7A1970FB6F894CA
:200D4000DEBF0FBECDBF19A2423008F44AE08E010F5D1F4F842E912CB12CA12CA50194018D
:200D60000E94600FE62FB901CA01EA30F4F4E05DD801EE938D01232B242B252B79F790E0D4
:200D800080E0109719F0CD010E948606A1960FB6F894DEBF0FBECDBFDF91CF911F910F91A9
:200DA000BF90AF909F908F900895E95CE1CFCF93DF930E941503EC018DE391E00E9486063B
:200DC0008C0F9D1FDF91CF910895CF92DF92EF92FF92CF93DF936C01990FEE08FF08F7FE90
:200DE00019C06DE289E791E00E94C802EC0166277727CB016C197D098E099F094AE00E9484
:200E000093068C0F9D1FDF91CF91FF90EF90DF90CF9008954AE0C701B601DF91CF91FF9091
:200E2000EF90DF90CF900C9493061F920F920FB60F9211242F933F938F939F93AF93BF93C3
:200E40008091750190917601A0917701B09178013091700123E0230F2D3758F50196A11DA3
:200E6000B11D209370018093750190937601A0937701B09378018091710190917201A091AE
:200E80007301B09174010196A11DB11D8093710190937201A0937301B0937401BF91AF91FB
:200EA0009F918F913F912F910F900FBE0F901F90189526E8230F0296A11DB11DD2CF1F9235
:200EC0000F920FB60F9211242F933F934F935F936F937F938F939F93AF93BF93EF93FF935E
:200EE00089E791E00E94A602FF91EF91BF91AF919F918F917F916F915F914F913F912F9167
:200F00000F900FBE0F901F9018951F920F920FB60F9211242F938F939F93EF93FF93E091E2
:200F20008901F0918A018081E0918F01F091900182FD1BC09081809192018F5F8F73209157
:200F40009301821741F0E0919201F0E0E758FE4F958F80939201FF91EF919F918F912F91E9
:200F60000F900FBE0F901F9018958081F4CF1F920F920FB60F921124CF92DF92EF92FF9275
:200F80000F931F932F933F934F935F936F937F938F939F93AF93BF93CF93DF93EF93FF93B1
:200FA000C9B1D0915C01DC27C0935C010E94D101D2FF0AC0C2FF45C06093580170935901C8
:200FC00080935A0190935B01D3FF0AC0C3FF5BC06093540170935501809356019093570125
:200FE000D5FF0AC0C5FF71C060935001709351018093520190935301D6FF0AC0C6FF87C03D
:2010000060934C0170934D0180934E0190934F01FF91EF91DF91CF91BF91AF919F918F91AA
:201020007F916F915F914F913F912F911F910F91FF90EF90DF90CF900F900FBE0F901F905A
:201040001895009158011091590120915A0130915B016B017C01C01AD10AE20AF30A8601C7
:2010600044E8C41A43E0D40AE108F10841EBC41644E0D406E104F10408F0A6CF109307018D
:2010800000930601A1CF009154011091550120915601309157016B017C01C01AD10AE20ABE
:2010A000F30A860144E8C41A43E0D40AE108F10841EBC41644E0D406E104F10408F090CF8A
:2010C00010930501009304018BCF009150011091510120915201309153016B017C01C01AC4
:2010E000D10AE20AF30A860144E8C41A43E0D40AE108F10841EBC41644E0D406E104F104DA
:2011000008F07ACF109303010093020175CF00914C0110914D0120914E0130914F01DC0152
:20112000CB01801B910BA20BB30B8C019D010458134021093109013B14402105310508F01F
:2011400067CF909301018093000162CFCF93DF93E9E7F1E01382128288EE93E0A0E0B0E058
:2011600084839583A683B7838FE291E09183808385EC90E09587848784EC90E097878687E1
:2011800080EC90E0918B808B81EC90E0938B828B82EC90E0958B848B86EC90E0978B868B22
:2011A000118E128E138E148EC7E1D2E08AE08A8B61E00E94490161E08A890E94950186E1B4
:2011C00092E0998B888BDF91CF910895CF93DF93CDB7DEB72C970FB6F894DEBF0FBECDBF02
:2011E000789484B5826084BD84B5816084BD85B5826085BD85B5816085BD80916E00816011
:2012000080936E00109281008091810082608093810080918100816080938100809180008A
:201220008160809380008091B10084608093B1008091B00081608093B00080917A008460FC
:2012400080937A0080917A00826080937A0080917A00816080937A0080917A008068809388
:201260007A001092C100E0918901F0918A0182E08083E0918501F09186011082E09187019B
:20128000F091880180E1808310929101E0918D01F0918E0186E08083E0918B01F0918C0129
:2012A000808180618083E0918B01F0918C01808188608083E0918B01F0918C01808180685E
:2012C0008083E0918B01F0918C0180818F7D80836CE271E080E090E00E94F60160E082E046
:2012E0000E94950160E083E00E94950160E085E00E94950160E086E00E94950162E084E07A
:201300000E94950161E088E00E94950160E088E00E94490161E087E00E94950161E08EE091
:201320000E94950180E00E943B068091680084608093680080916D00846080936D00809167
:201340006D00886080936D0080916D00806280936D0080916D00806480936D0061E089E04C
:201360000E94950160E089E00E9449018FE79EE390935F0180935E0110928000109281006F
:201380001092850010928400809180008260809380008091810088618093810080915E017B
:2013A00090915F0190938700809386001092890010928800809181008160809381008091FC
:2013C00080008F7780938000809180008F7B809380000E945A061FB7F89480915D01811161
:2013E00027C0E4E0F2E08491E8E1F2E09491E82FF0E0EE0FFF1FEA51FE4FA591B491EC9119
:20140000E92321F461E08AE00E94490161E08AE00E9495018CB580618CBD8CB580648CBD58
:2014200061E08DE00E94950161E08BE00E94950180915D018F5F80935D011FBF80E591E060
:201440000E94460160E0809129020E94490180EC0E94510361E0809129020E94490165E02B
:2014600070E080E090E00E94F60180E480932A0280E80E94CE03882349F083ED90E00E94CF
:20148000D7068AEF90E00E94D706FFCF8BEA90E00E94D70660E88AE20E944E0465EE89E26F
:2014A0000E944E0463E888E20E944E048EE890E00E94D70661E080E20E94320461E084E208
:2014C0000E94320461E080E00E94320460E084E00E94320461E088E00E94320460E080E11D
:2014E0000E94320461E084E10E94320460E088E10E94320410E360E0812F0E944E0460E0FE
:2015000080E1810F0E944E0460E080E2810F0E944E041F5F1E3379F760E080E60E944E04E7
:2015200060E080E70E944E0463E08BE20E944E046CE38CE00E944E0460E08DE00E944E041C
:2015400044E664E680E60E94790340E660E680E70E94790380912A020E94CE03882309F44A
:201560003CC488E690E08BCF0E941E0680FF4EC081E60E949B0540E061E08CE20E9479034A
:2015800080911702882389F08091180290911902A0911A02B0911B02B06880931802909383
:2015A0001902A0931A02B0931B0280912502882389F08091180290911902A0911A02B09110
:2015C0001B02B0648093180290931902A0931A02B0931B028091180290911902A0911A020C
:2015E000B0911B0289879A87AB87BC8770901C02ADE1B2E0F801272D30E0CF01801B910B45
:20160000821793075CF48D918193F7CF81FF06C081E70E949B0540E062E0AFCF29853A8512
:201620004B855C85213031054105574009F017C288E0781214C22FB7F894809175019091E1
:201640007601A0917701B09178012FBF8093640190936501A0936601B0936701A980BA8019
:20166000BA24AB24BA24EB80FC80FE24EF24FE24CD80DE80DC24CD24DC248F80988498241E
:20168000892498248EE591E00E94150340E161E070E080E097E00E94930683E591E00E9404
:2016A0001503B50190E080E04AE00E94930688E491E00E941503C7010E94E5068EE391E059
:2016C0000E941503C6010E94E50686E391E00E941503B40190E080E040E10E9493068DE317
:2016E00091E00E948606BBC160910E0170910F016831B6E07B0708F422C26C3627E072070B
:2017000008F040C06751764090E080E00E949B1020E030E84AEA53E40E94FA0F23E333E3FC
:2017200043E75FE30E9485112DEC3CEC4CE45DE30E94890F4B015C012DEC3CEC4CE45DE3C0
:201740000E94F50F87FD5DC020E030E040E85FE3C501B4010E944D111816A4F020E030E07B
:20176000A901C501B4010E94F50F18160CF0E7C120E030E040E85FE3C501B4010E944D11D7
:2017800087FD03C00E944E06DCC127E73EEB4FE75FE3C501B4010E944D1187FFF3CF8091EC
:2017A0008000806880938000809180008F7B80938000C0905E01D0905F01F12CE12CC7019F
:2017C000B6016F5F7F4F8F4F9F4F0E949B10A50194010E9485110E945211611571058105B3
:2017E000910521F461E070E080E090E06C157D058E059F0508F46B01D0928900C092880076
:20180000A0C16DEC862E6CEC962E6CE4A62E6DE3B62EC5CFF12CB7C1FF24F394B4C1F0901E
:2018200069018F2D0E943B06F0926A011092680180916F01882309F4E4C080916B0190913C
:201840006C01A0916D01B0916E01A5019401281B390B4A0B5B0BDA01C901C297A105B105F5
:2018600008F4CFC060910A0170910B01CB01825D9540C12CD12C7601459708F458C090E093
:2018800080E00E949B106B017C0120E030E846EB54E40E94F50F18160CF4C5C120E030E8BF
:2018A00049E854E4C701B6010E94880F20E030E044EB53E40E94FA0F6B017C0120E030E0ED
:2018C000A9010E94F50F87FDA3C120E030E040E85FE3C701B6010E944D1118160CF49CC14C
:2018E00020E030E047E054E4C701B6010E94851120E030E047E054E40E94880F6B017C0131
:2019000020E030E047E054EC0E94F50F87FDC5C120E030E047E054E4C701B6010E944D11B2
:2019200018160CF4C1C1F7FAF094F7F8F0942EED3DED4DED5DE3C701B6010E9485110E94F7
:20194000521133E2398322E02A8340E24B8321E02C836D837E838F839887C8010E946F0404
:2019600083EA91E00E94150360910E0170910F0190E080E04AE00E9493068DE991E00E9400
:20198000150360910C0170910D0190E080E04AE00E94930685E991E00E94150360910A0158
:2019A00070910B0190E080E04AE00E9493068DE891E00E941503609108017091090190E0D0
:2019C00080E04AE00E94930684E891E00E941503A7019601C701B6010E94F211882309F4A0
:2019E0006AC180E491E00E9486068DE391E00E94860680926B0190926C01A0926D01B092BB
:201A00006E0180916F01882309F18091640190916501A0916601B0916701A5019401281B75
:201A2000390B4A0B5B0BDA01C901853F9140A105B10560F088E691E00E94D70680926401EC
:201A400090926501A0926601B09267012114310429F00E94920281110E940000712C0E948F
:201A60001E06837009F080CD30910E0120910F01F89480910601909107017894AC01445856
:201A80005340413B544010F4382F292F30930E0120930F0130910C0120910D01F894809121
:201AA0000401909105017894AC0144585340413B544010F4382F292F30930C0120930D01AE
:201AC00030910A0120910B01F89480910201909103017894AC0144585340413B544010F4BC
:201AE000382F292F30930A0120930B013091080120910901F8948091000190910101789448
:201B0000AC0144585340413B544010F4382F292F309308012093090180916F0120910C014E
:201B200030910D01243195E0390708F4AEC1253A364008F078C180916F018111D5CD0E9404
:201B40005A068FB7F8948090750190907601A0907701B09078018FBF809108019091090142
:201B6000F09069019C0128573540293C310508F451CE843135E0930708F44ECE853A964023
:201B800010F052E0F52E80916801811114C080916A018F1581F0F092690180E00E943B0650
:201BA00081E0809368018092600190926101A0926201B092630180916801882309F438CEEE
:201BC000809169018F1569F0F092690180E00E943B068092600190926101A0926201B09290
:201BE00063018091600190916101A0916201B0916301A5019401281B390B4A0B5B0BDA01FB
:201C0000C901803D9740A105B10508F411CE07CEC12CD12C760164CEC12CD12C40E8E42EA3
:201C20004FE3F42E5DCE20E030E846EB54E4C701B6010E94880F20E030E04CED53E40E94CA
:201C4000FA0F6B017C0120E030E0A9010E94F50F87FD18C020E030E040E85FE3C701B601DD
:201C60000E944D11181694F020E030E047E054E4C701B6010E94851120E030E0A9010E9430
:201C8000890F3CCEC12CD12C7601EECFC12CD12C30E8E32E3FE3F32EE7CFC12CD12C27E087
:201CA000E22E24ECF22E3FCEC12CD12C97E0E92E94E4F92E38CE26013701E89477F82FEF52
:201CC0003FEF4FE75FE7C301B2010E94F21181110DC02FEF3FEF4FE75FE7C301B2010E94FE
:201CE000F50F18161CF484E491E07DCE2FEF3FEF4FE75FE4C701B6010E944D1118161CF4FC
:201D000088E491E070CE2FEF3FEF4FE75FECC701B6010E94F50F87FDF3CF20E030E0A901B6
:201D2000C701B6010E94F50F87FF09C06DE289E791E00E94C802F7FAF094F7F8F0942AE0A1
:201D400037ED43EA5BE3C701B6010E94890F2B013C010E946C106B017C010E949B109B01E2
:201D6000AC01C301B2010E94880F2B013C014AE0C701B6010E9493066EE289E791E00E94E6
:201D8000C80220E030E040E251E4C301B2010E9485112B013C010E946C106B01F12CE12C46
:201DA0004AE0C701B6010E949306C701B6010E949B109B01AC01C301B2010E94880F20E07A
:201DC00030E040E251E40E9485110E946C1090E080E04AE00E94930608CE8BE191E00E94BC
:201DE000D70610922A0280E00E94CE0364E670E080E090E00E94F6010E94660660E088E0AC
:201E00000E9449010E945A0680E00E943B0688E091E00E94D7068E010F5F1F4F80E0282E18
:201E200080E0382E1BCE811186CE81E080936F0188E0EBE1F1E0D80101900D928A95E1F724
:201E4000C8010E946F0464E170E080E090E00E94F60188E0E3E2F1E0D80101900D928A9580
:201E6000E1F7C8010E946F0461E088E00E94490182EC91E00E94D70610926B0110926C019C
:201E800010926D0110926E0156CE882309F453CE10926F010E94660660E088E00E94490180
:201EA0000E945A0680E00E943B0610926A0110926901109268018BEA91E00E94D7063BCE4B
:201EC000A1E21A2EAA1BBB1BFD010DC0AA1FBB1FEE1FFF1FA217B307E407F50720F0A21BDC
:201EE000B30BE40BF50B661F771F881F991F1A9469F760957095809590959B01AC01BD0172
:201F0000CF010895EE0FFF1F0590F491E02D09945058BB27AA270E94A00F0C9413110E9463
:201F2000051138F00E940C1120F039F49F3F19F426F40C9402110EF4E095E7FB0C94FC10AA
:201F4000E92F0E94241158F3BA17620773078407950720F079F4A6F50C9446110EF4E095E6
:201F60000B2EBA2FA02D0B01B90190010C01CA01A0011124FF27591B99F0593F50F4503EE0
:201F800068F11A16F040A22F232F342F4427585FF3CF469537952795A795F0405395C9F7A7
:201FA0007EF41F16BA0B620B730B840BBAF09150A1F0FF0FBB1F661F771F881FC2F70EC0EE
:201FC000BA0F621F731F841F48F4879577956795B795F7959E3F08F0B0CF9395880F08F03F
:201FE0009927EE0F9795879508950E94D81008F481E008950E940E100C9413110E940C1178
:2020000058F00E94051140F029F45F3F29F00C94FC1051110C9447110C9402110E9424112C
:2020200068F39923B1F3552391F3951B550BBB27AA2762177307840738F09F5F5F4F220FA3
:20204000331F441FAA1FA9F335D00E2E3AF0E0E832D091505040E695001CCAF72BD0FE2F40
:2020600029D0660F771F881FBB1F261737074807AB07B0E809F0BB0B802DBF01FF2793588A
:202080005F4F3AF09E3F510578F00C94FC100C9447115F3FE4F3983ED4F3869577956795F4
:2020A000B795F7959F5FC9F7880F911D9695879597F90895E1E0660F771F881FBB1F62170B
:2020C00073078407BA0720F0621B730B840BBA0BEE1F88F7E09508950E942C1188F09F57F0
:2020E00098F0B92F9927B751B0F0E1F0660F771F881F991F1AF0BA95C9F714C0B13091F07E
:202100000E944611B1E008950C944611672F782F8827B85F39F0B93FCCF38695779567959B
:20212000B395D9F73EF490958095709561957F4F8F4F9F4F0895E89409C097FB3EF49095BB
:202140008095709561957F4F8F4F9F4F9923A9F0F92F96E9BB279395F69587957795679520
:20216000B795F111F8CFFAF4BB0F11F460FF1BC06F5F7F4F8F4F9F4F16C0882311F096E9EA
:2021800011C0772321F09EE8872F762F05C0662371F096E8862F70E060E02AF09A95660FB2
:2021A000771F881FDAF7880F9695879597F90895990F0008550FAA0BE0E8FEEF161617063F
:2021C000E807F907C0F012161306E407F50798F0621B730B840B950B39F40A2661F0232B8A
:2021E000242B252B21F408950A2609F4A140A6958FEF811D811D089597F99F6780E870E0A0
:2022000060E008959FEF80EC089500240A941616170618060906089500240A941216130672
:20222000140605060895092E0394000C11F4882352F0BB0F40F4BF2B11F460FF04C06F5F32
:202240007F4F8F4F9F4F089557FD9058440F551F59F05F3F71F04795880F97FB991F61F0EE
:202260009F3F79F087950895121613061406551FF2CF4695F1DF08C0161617061806991F3C
:20228000F1CF86957105610508940895E894BB2766277727CB0197F908950E94D81008F446
:2022A0008FEF08950E942C1158F19E5760F19851A0F0E9F0983020F5092E9927660F771F64
:2022C000881F991F0A94D1F712C0062E672F782F8827985F11F4000C07C0993FB4F38695DE
:2022E000779567959395D9F7611D711D811D3EF490958095709561957F4F8F4F9F4F089596
:2023000068940C9447110C9446110E9498110C9413110E94051138F00E940C1120F095235C
:2023200011F00C94FC100C94021111240C9447110E94241170F3959FC1F3950F50E0551FA6
:20234000629FF001729FBB27F00DB11D639FAA27F00DB11DAA1F649F6627B00DA11D661FD6
:20236000829F2227B00DA11D621F739FB00DA11D621F839FA00D611D221F749F3327A00D41
:20238000611D231F849F600D211D822F762F6A2F11249F5750409AF0F1F088234AF0EE0FB8
:2023A000FF1FBB1F661F771F881F91505040A9F79E3F510580F00C94FC100C9447115F3F6D
:2023C000E4F3983ED4F3869577956795B795F795E7959F5FC1F7FE2B880F911D96958795A7
:2023E00097F908950E94D810880B990B0895F894FFCFDC05B405DC05DC05DC05B405DC0521
:20240000DC05304050230C200100000000030D203100000000230D20010000000000000019
:2024200000C8022802550230038602640278020D0A006E616E00696E66006F766600FFFFDC
:20244000FFFFFFFFFFFFFFFFFFFFFFFFFFFFFFFFFFFFFFFFFFFFFFFFFFFFFFFFFFFFFFFF9C
:20246000FFFFFFFFFFFFFFFFFFFFFFFFFFFFFFFFFFFFFFFFFFFFFFFFFFFFFFFFFFFFFFFF7C
:2024800007FC9058089546F00C942D1060E070E080E89FE308954FE79F775F934F933F9398
:2024A0002F930E940B132F913F914F915F910E94B70F0C9468120E94930F880B990B0895A0
:2024C00029F416F00C9427100C9471100C942D100E945710A8F39638A0F707F80F92E894DF
:2024E0002BE33AEA48EB5FE70E94CD0F0F920F920F924DB75EB70F920E945313E8E6F0E070
:202500000E949A124F915F91EF91FF91E595EE1FFF1F49F0FE57E0684427EE0F441FFA95B8
:20252000E1F74195550B0E94CD120F9007FE0C94C1120895DF93CF931F930F93FF92EF921E
:20254000DF927B018C01689406C0DA2EEF010E94CA0FFE01E894A5912591359145915591E3
:20256000A6F3EF010E940911FE019701A801DA9469F7DF90EF90FF900F911F91CF91DF916B
:2025800008959B01AC0160E070E080E89FE30C945E110C9427100C9487130E945710D8F3E7
:2025A0009923C9F3940F511DA3F39150504094F059F0882332F0660F771F881F91505040CE
:2025C000C1F79E3F51052CF7880F911D9695879597F908955F3FACF0983E9CF0BB2786959B
:2025E00077956795B79508F4B1609395C1F7BB0F58F711F460FFE8CF6F5F7F4F8F4F9F4FFE
:20260000E3CF0C94721016F00C9487130C942D1068940C9427100E945710A8F39923C1F3E2
:20262000AEF3DF93CF931F930F93FF92C92FDD2788232AF02197660F771F881FDAF720E044
:2026400030E040E85FEB9FE3883920F0803E38F021968F770E94F210E0E9F0E004C00E945F
:20266000F210EDEBF0E00E949A128B01BE01EC01FB2E6F5771097595771F880B990B0E9448
:20268000580F28E132E741E35FE30E94CA0FAF2D9801AE01FF900F911F91CF91DF910E945B
:2026A00009110C943E10FA01DC01AA0FBB1F9B01AC01BF5728F4222733274427507820C076
:2026C000B75190F4AB2F0024469537952795011CA395D2F3002071F0220F331F441FB39544
:2026E000DAF30ED00C94F11061307105A0E88A07B94630F49B01AC01662777278827907820
:20270000309621F0208331834283538308959F3F31F0915020F4879577956795B795880F58
:20272000911D9695879597F908950F931F93CF93DF938230910510F482E090E0E0911002AE
:20274000F091110230E020E0B0E0A0E0309799F42115310509F44AC0281B390B24303105ED
:20276000D8F58A819B816115710589F1FB0193838283FE0111C0408151810281138148170F
:202780005907E0F04817590799F4109761F012960C93129713961C933296CF01DF91CF9115
:2027A0001F910F9108950093100210931102F4CF2115310551F04217530738F0A901DB0100
:2027C0009A01BD01DF01F801C1CFEF01F9CF9093110280931002CDCFFE01E20FF31F819372
:2027E00091932250310939832883D7CF20910E0230910F02232B41F4209106013091070165
:2028000030930F0220930E0220910401309105012115310541F42DB73EB74091080150916F
:202820000901241B350BE0910E02F0910F02E217F307A0F42E1B3F0B2817390778F0AC014E
:202840004E5F5F4F2417350748F04E0F5F1F50930F0240930E02819391939FCFF0E0E0E086
:202860009CCFCF93DF930097E9F0FC01329713821282A0911002B0911102ED0130E020E025
:202880001097A1F420813181820F931F20910E0230910F022817390709F061C0F0930F02A6
:2028A000E0930E02DF91CF910895EA01CE17DF07E8F54A815B819E0141155105B1F7E90111
:2028C000FB83EA8349915991C40FD51FEC17FD0761F4808191810296840F951FE90199832E
:2028E0008883828193819B838A83F0E0E0E012968D919C9113970097B9F52D913C911197E6
:20290000CD010296820F931F20910E0230910F022817390739F6309751F510921102109269
:202920001002B0930F02A0930E02BCCFD383C28340815181840F951FC817D90761F44E5F2D
:202940005F4F88819981480F591F518340838A819B81938382832115310509F0B0CFF09397
:202960001102E09310029ECFFD01DC01C0CF13821282D7CFB0E0A0E0E0ECF4E10C94851033
:202980008C01009751F4CB010E9495138C01C801CDB7DEB7E0E10C94A110FC01E60FF71F2F
:2029A0009C0122503109E217F30708F49DC0D901CD91DC911197C617D70798F0C530D10527
:2029C00030F3CE0104978617970708F3C61BD70B2297C193D1936D937C93CF010E9431143A
:2029E000D6CF5B01AC1ABD0A4C018C0E9D1EA0911002B0911102512C412CF12CE12C109755
:202A000031F580910E0290910F028815990509F05CC04616570608F058C0809104019091ED
:202A20000501009741F48DB79EB74091080150910901841B950BE817F90708F055C0F09398
:202A40000F02E0930E02F90171836083A0CF8D919C91119712966C90129713967C90139703
:202A6000A815B90559F56C0142E0C40ED11CCA14DB0420F1AC014A195B09DA0112961597CE
:202A800080F06282738251834083D9016D937C93E114F10471F0D7011396FC93EE931297E8
:202AA00076CF22968C0F9D1FF90191838083F301EFCFF0931102E093100269CF48165906EF
:202AC00008F42C017D01D3019ACFCB010E9495137C01009749F0AE01B8010E947715C80150
:202AE0000E943114870153CF10E000E050CFFB01DC0102C001900D9241505040D8F70895FE
:202B0000FB01DC0101900D920020E1F70895F894FFCF286B6E4E00001202800030405023F7
:202B20000D200100000000030D203100000000000000007503A302D002DD033303DF0225FB
:202B4000030D0A006E616E00696E66006F766600290030002000FFFFFFFFFFFFFFFFFFFF27
:202B6000FFFFFFFFFFFFFFFFFFFFFFFFFFFFFFFFFFFFFFFFFFFFFFFFFFFFFFFFFFFFFFFF75
:202B8000FFFFFFFFFFFFFFFFFFFFFFFFFFFFFFFFFFFFFFFFFFFFFFFFFFFFFFFFFFFFFFFF55
:202BA000FFFFFFFFFFFFFFFFFFFFFFFFFFFFFFFFFFFFFFFFFFFFFFFFFFFFFFFFFFFFFFFF35
:202BC000FFFFFFFFFFFFFFFFFFFFFFFFFFFFFFFFFFFFFFFFFFFFFFFFFFFFFFFFFFFFFFFF15
:207800000C94343C0C94513C0C94513C0C94513C0C94513C0C94513C0C94513C0C94513C1D
:207820000C94513C0C94513C0C94513C0C94513C0C94513C0C94513C0C94513C0C94513CE0
:207840000C94513C0C94513C0C94513C0C94513C0C94513C0C94513C0C94513C0C94513CC0
:207860000C94513C0C94513C11241FBECFEFD8E0DEBFCDBF11E0A0E0B1E0ECE9FFE702C07E
:2078800005900D92A230B107D9F712E0A2E0B1E001C01D92AD30B107E1F70E942D3D0C94CC
:2078A000CC3F0C94003C982F9595959595959595905D8F708A307CF0282F295A8091C000B5
:2078C00085FFFCCF9093C6008091C00085FFFCCF2093C6000895282F205DF0CF982F8091CF
:2078E000C00085FFFCCF9093C6000895EF92FF920F931F93EE24FF2487018091C00087FD7B
:2079000017C00894E11CF11C011D111D81E4E81682E4F8068FE0080780E0180770F3E09106
:207920000401F091050109958091C00087FFE9CF8091C6001F910F91FF90EF9008950E949A
:20794000763C982F8091C00085FFFCCF9093C60091362CF490330CF09053892F08959755DB
:20796000892F08951F930E949F3C182F0E949F3C1295107F810F1F9108951F93182F882308
:2079800021F00E94763C1150E1F71F9108951F93182F0E94763C803249F0809103018F5FC1
:2079A000809303018530C1F01F9108958091C00085FFFCCF84E18093C6008091C00085FF4A
:2079C000FCCF1093C6008091C00085FFFCCF80E18093C6001F910895E0910401F0910501CF
:2079E00009951F9108950E94763C803241F0809103018F5F80930301853081F00895809177
:207A0000C00085FFFCCF84E18093C6008091C00085FFFCCF80E18093C6000895E0910401AC
:207A2000F09105010995089540E951E08823A1F02D9A28EE33E0FA013197F1F72150304072
:207A4000D1F72D9828EE33E0FA013197F1F721503040D1F7815061F708953F924F925F92B3
:207A60006F927F928F929F92AF92BF92CF92DF92EF92FF920F931F93CF93DF93000080E1A3
:207A80008093C4001092C50088E18093C10086E08093C2005098589A259A81E00E94143D43
:207AA00024E1F22E9EE1E92E85E9D82E0FE0C02E10E1B12EAA24A394B1E49B2EA6E58A2E44
:207AC000F2E57F2EE0E26E2E79E4572E63E5462E50E5352E0E94763C8033B1F18133B9F187
:207AE000803409F46FC0813409F476C0823409F485C0853409F488C0803531F1823521F128
:207B0000813511F1853509F485C0863509F48DC0843609F496C0843709F403C1853709F46A
:207B200072C1863709F466C0809103018F5F80930301853079F6E0910401F0910501099559
:207B40000E94763C803351F60E94F33CC3CF0E94763C803249F78091C00085FFFCCFF0928C
:207B6000C6008091C00085FFFCCF9092C6008091C00085FFFCCF8092C6008091C00085FFEA
:207B8000FCCF7092C6008091C00085FFFCCF6092C6008091C00085FFFCCF5092C6008091A1
:207BA000C00085FFFCCF4092C6008091C00085FFFCCF3092C6008091C00085FFFCCFB09214
:207BC000C60088CF0E94763C863808F4BDCF0E94763C0E94F33C7ECF0E94763C803809F473
:207BE0009CC0813809F40BC1823809F43CC1883909F48FC080E00E94C73C6CCF84E10E949F
:207C0000BD3C0E94F33C66CF85E00E94BD3C0E94F33C60CF0E94763C809306010E94763CA3
:207C2000809307010E94F33C55CF0E94763C803309F41DC183E00E94BD3C80E00E94C73C4F
:207C400049CF0E94763C809309020E94763C8093080280910C028E7F80930C020E94763C88
:207C6000853409F415C18091080290910902892B89F000E010E00E94763CF801E85FFE4F53
:207C800080830F5F1F4F80910802909109020817190788F30E94763C803209F045CF8091E0
:207CA0000C0280FF01C16091060170910701660F771F7093070160930601A0910802B091E8
:207CC00009021097C9F0E8E0F1E09B01AD014E0F5F1FF999FECF32BD21BD819180BDFA9A6C
:207CE000F99A2F5F3F4FE417F50799F76A0F7B1F70930701609306018091C00085FFFCCF16
:207D0000F092C6008091C00085FFFCCFB092C600E1CE83E00E94C73CDDCE82E00E94C73C8A
:207D2000D9CE0E94763C809309020E94763C809308028091060190910701880F991F909306
:207D40000701809306010E94763C853409F4A6C080910C028E7F80930C020E94763C80323E
:207D600009F0B8CE8091C00085FFFCCFF092C600609108027091090261157105B9F140E05F
:207D800050E080910C02A82FA170B82FB27011C0BB2309F45CC0E0910601F0910701319613
:207DA000F0930701E09306014F5F5F4F46175707E8F4AA2369F3F999FECF209106013091CA
:207DC000070132BD21BDF89A90B58091C00085FFFCCF9093C6002F5F3F4F30930701209354
:207DE00006014F5F5F4F4617570718F38091C00085FDE5CE8091C00085FFF8CFE0CE81E029
:207E00000E94C73C67CE0E94763C803209F08CCE8091C00085FFFCCFF092C6008091C000F6
:207E200085FFFCCFE092C6008091C00085FFFCCFD092C6008091C00085FFFCCFC092C6003B
:207E40008091C00085FFFCCFB092C60043CEE0910601F091070194918091C00085FFFCCFA3
:207E60009093C6009CCF80E10E94C73C33CE0E94763C0E94763C182F0E94763C112309F433
:207E800083C0113009F484C08FE00E94C73C22CE80910C02816080930C02E5CE80910C0226
:207EA000816080930C0259CF809107018823880F880B8A2180930B0280910601909107019E
:207EC000880F991F90930701809306018091080280FF09C0809108029091090201969093AA
:207EE000090280930802F894F999FECF1127E0910601F0910701C8E0D1E0809108029091A1
:207F00000902103091F40091570001700130D9F303E000935700E895009157000170013067
:207F2000D9F301E100935700E895099019900091570001700130D9F301E000935700E8954C
:207F40001395103498F011270091570001700130D9F305E000935700E8950091570001707A
:207F60000130D9F301E100935700E8953296029709F0C7CF103011F00296E5CF11248091F8
:1E7F8000C00085FFB9CEBCCE8EE10E94C73CA2CD85E90E94C73C9ECDF894FFCF8000B3
:00000001FF
